******************************************************************************
                  TI ARM Linker Unix v16.3.0                   
******************************************************************************
>> Linked Thu Jun 23 10:14:06 2016

OUTPUT FILE NAME:   <Telescopio.out>
ENTRY POINT SYMBOL: "_c_int00"  address: 00005899


MEMORY CONFIGURATION

         name            origin    length      used     unused   attr    fill
----------------------  --------  ---------  --------  --------  ----  --------
  FLASH                 00000000   00040000  0000762a  000389d6  R  X
  SRAM                  20000000   00008000  00000a25  000075db  RW X


SEGMENT ALLOCATION MAP

run origin  load origin   length   init length attrs members
----------  ----------- ---------- ----------- ----- -------
00000000    00000000    0000762c   0000762c    r-x
  00000000    00000000    0000026c   0000026c    r-- .intvecs
  0000026c    0000026c    00006d92   00006d92    r-x .text
  00007000    00007000    00000498   00000498    r-- .const
  00007498    00007498    00000194   00000194    r-- .cinit
20000000    20000000    00000a28   00000000    rw-
  20000000    20000000    0000040d   00000000    rw- .bss
  20000410    20000410    00000400   00000000    rw- .stack
  20000810    20000810    00000218   00000000    rw- .data


SECTION ALLOCATION MAP

 output                                  attributes/
section   page    origin      length       input sections
--------  ----  ----------  ----------   ----------------
.intvecs   0    00000000    0000026c     
                  00000000    0000026c     startup_ccs.obj (.intvecs)

.text      0    0000026c    00006d92     
                  0000026c    00001110     rtsv7M4_T_le_v4SPD16_eabi.lib : _printfi.obj (.text)
                  0000137c    00000924                                   : _scanfi.obj (.text)
                  00001ca0    000004cc     usb_dev_serial.obj (.text:main)
                  0000216c    0000023c     rtsv7M4_T_le_v4SPD16_eabi.lib : strtod.obj (.text)
                  000023a8    000001f4                                   : ull_div_t2.obj (.text)
                  0000259c    000001e4                                   : strtoll.obj (.text)
                  00002780    000001b6                                   : fd_add_t2.obj (.text)
                  00002936    00000002     startup_ccs.obj (.text:FaultISR)
                  00002938    0000016c     rtsv7M4_T_le_v4SPD16_eabi.lib : strtoull.obj (.text)
                  00002aa4    00000160     usblib.lib : usbdma.obj (.text:USBLibDMAInit)
                  00002c04    00000150                : usbdenum.obj (.text:USBDCDInit)
                  00002d54    00000150                : usbdenum.obj (.text:USBDEP0StateTxConfig)
                  00002ea4    00000150                : usbdenum.obj (.text:USBDeviceIntHandlerInternal)
                  00002ff4    00000148                : usbdconfig.obj (.text:USBDeviceConfig)
                  0000313c    00000136     rtsv7M4_T_le_v4SPD16_eabi.lib : fd_div_t2.obj (.text)
                  00003272    00000002     startup_ccs.obj (.text:IntDefaultHandler)
                  00003274    00000134     rtsv7M4_T_le_v4SPD16_eabi.lib : strtol.obj (.text)
                  000033a8    00000132     driverlib.lib : gpio.obj (.text:GPIOPadConfigSet)
                  000034da    00000002     startup_ccs.obj (.text:NmiSR)
                  000034dc    00000114     rtsv7M4_T_le_v4SPD16_eabi.lib : strtoul.obj (.text)
                  000035f0    000000fc     motores.obj (.text:Goto)
                  000036ec    000000fc     rtsv7M4_T_le_v4SPD16_eabi.lib : fd_mul_t2.obj (.text)
                  000037e8    000000fc                                   : s_scalbn.obj (.text)
                  000038e4    000000f4     usblib.lib : usbdma.obj (.text:iDMAUSBTransfer)
                  000039d8    000000e4                : usbdenum.obj (.text:USBDGetDescriptor)
                  00003abc    000000dc     usb_dev_serial.obj (.text:ControlHandler)
                  00003b98    000000d8     usblib.lib : usbdcdc.obj (.text:USBDCDCCompositeInit)
                  00003c70    000000d8                : usbdenum.obj (.text:USBDeviceEnumHandler)
                  00003d48    000000d4                : usbdcdc.obj (.text:HandleRequests)
                  00003e1c    000000cc     rtsv7M4_T_le_v4SPD16_eabi.lib : sscanf.obj (.text)
                  00003ee8    000000c4     usblib.lib : usbdma.obj (.text:uDMAUSBChannelAllocate)
                  00003fac    000000be                : usbbuffer.obj (.text:HandleRxAvailable)
                  0000406a    000000bc                : usbdma.obj (.text:uDMAUSBTransfer)
                  00004126    000000b4                : usbdcdc.obj (.text:HandleDevice)
                  000041da    00000002                : usbdma.obj (.text:iDMAUSBArbSizeSet)
                  000041dc    0000009c     motores.obj (.text:initmotores)
                  00004278    0000009c     rtsv7M4_T_le_v4SPD16_eabi.lib : memcpy_t2.obj (.text)
                  00004314    00000098     usblib.lib : usbdenum.obj (.text:USBDSetInterface)
                  000043ac    00000096                : usbdcdc.obj (.text:CDCTickHandler)
                  00004442    00000094                : usbdcdc.obj (.text:SendSerialState)
                  000044d6    00000002                : usbdma.obj (.text:iDMAUSBUnitSizeSet)
                  000044d8    00000094     parser.obj (.text:quecomandoes)
                  0000456c    00000092     usblib.lib : usbbuffer.obj (.text:ScheduleNextTransmission)
                  000045fe    00000090                : usbdcdc.obj (.text:USBDCDCPacketRead)
                  0000468e    00000002     rtsv7M4_T_le_v4SPD16_eabi.lib : mpu_init.obj (.text)
                  00004690    00000090     usblib.lib : usbdenum.obj (.text:USBDSetConfiguration)
                  00004720    0000008c     usb_dev_serial.obj (.text:GetLineCoding)
                  000047ac    0000008c     usblib.lib : usbdconfig.obj (.text:USBDeviceConfigAlternate)
                  00004838    00000086     rtsv7M4_T_le_v4SPD16_eabi.lib : fd_cmp_t2.obj (.text:__aeabi_cdcmple)
                  000048be    00000086                                   : fd_cmp_t2.obj (.text:__aeabi_cdrcmple)
                  00004944    00000084     usblib.lib : usbdma.obj (.text:iDMAUSBChannelAllocate)
                  000049c8    00000084     driverlib.lib : udma.obj (.text:uDMAChannelTransferSet)
                  00004a4c    00000080     usblib.lib : usbdenum.obj (.text:USBDClearFeature)
                  00004acc    0000007a     driverlib.lib : usb.obj (.text:USBDevEndpointConfigSet)
                  00004b46    0000007a     rtsv7M4_T_le_v4SPD16_eabi.lib : memset_t2.obj (.text)
                  00004bc0    00000078     motores.obj (.text:Timer0IntHandler)
                  00004c38    00000078     motores.obj (.text:Timer1IntHandler)
                  00004cb0    00000078     usblib.lib : usbdenum.obj (.text:USBDGetStatus)
                  00004d28    00000074     usb_dev_serial.obj (.text:RxHandler)
                  00004d9c    00000074     motores.obj (.text:TrackDEC)
                  00004e10    00000072     usblib.lib : usbdcdc.obj (.text:ProcessDataFromHost)
                  00004e82    00000002     rtsv7M4_T_le_v4SPD16_eabi.lib : startup.obj (.text)
                  00004e84    00000070     usb_dev_serial.obj (.text:ReadUARTData)
                  00004ef4    00000070     usb_dev_serial.obj (.text:SetLineCoding)
                  00004f64    00000070     motores.obj (.text:TrackRA)
                  00004fd4    00000070     usblib.lib : usbdenum.obj (.text:USBDEP0StateTx)
                  00005044    00000070     rtsv7M4_T_le_v4SPD16_eabi.lib : autoinit.obj (.text)
                  000050b4    00000070     usblib.lib : usbdma.obj (.text:uDMAUSBArbSizeSet)
                  00005124    00000070                : usbdma.obj (.text:uDMAUSBUnitSizeSet)
                  00005194    0000006e     rtsv7M4_T_le_v4SPD16_eabi.lib : fd_tos_t2.obj (.text)
                  00005202    00000002     usblib.lib : usbdma.obj (.text:uDMAUSBChannelIntDisable)
                  00005204    0000006c                : usbdcdc.obj (.text:ProcessDataToHost)
                  00005270    0000006c                : usbdenum.obj (.text:USBDSetFeature)
                  000052dc    0000006a     rtsv7M4_T_le_v4SPD16_eabi.lib : copy_decompress_rle.obj (.text)
                  00005346    00000002     usblib.lib : usbdma.obj (.text:uDMAUSBChannelIntEnable)
                  00005348    00000068     driverlib.lib : interrupt.obj (.text:IntDisable)
                  000053b0    00000068                   : interrupt.obj (.text:IntEnable)
                  00005418    00000064                   : interrupt.obj (.text:IntIsEnabled)
                  0000547c    00000064     usblib.lib : usbbuffer.obj (.text:USBBufferEventCallback)
                  000054e0    00000064     usb_dev_serial.obj (.text:USBUARTIntHandler)
                  00005544    00000064     rtsv7M4_T_le_v4SPD16_eabi.lib : s_frexp.obj (.text)
                  000055a8    00000064     usblib.lib : usbdma.obj (.text:uDMAUSBChannelEnable)
                  0000560c    00000060     driverlib.lib : timer.obj (.text:TimerConfigure)
                  0000566c    00000060     usblib.lib : usbdcdc.obj (.text:USBDCDCPacketWrite)
                  000056cc    00000060                : usbdenum.obj (.text:USBDReadAndDispatchRequest)
                  0000572c    00000060     rtsv7M4_T_le_v4SPD16_eabi.lib : sprintf.obj (.text)
                  0000578c    0000005e     driverlib.lib : usb.obj (.text:USBDevEndpointStatusClear)
                  000057ea    00000056     rtsv7M4_T_le_v4SPD16_eabi.lib : ltoa.obj (.text)
                  00005840    00000056     usblib.lib : usbdma.obj (.text:uDMAUSBChannelRelease)
                  00005896    00000002     --HOLE-- [fill = 0]
                  00005898    00000054     rtsv7M4_T_le_v4SPD16_eabi.lib : boot.obj (.text)
                  000058ec    00000054                                   : exit.obj (.text)
                  00005940    00000052     usblib.lib : usbulpi.obj (.text:ULPIConfigSet)
                  00005992    00000002     --HOLE-- [fill = 0]
                  00005994    00000050     driverlib.lib : sysctl.obj (.text:SysCtlPeripheralReset)
                  000059e4    00000050     usblib.lib : usbdcdc.obj (.text:USBDCDCInit)
                  00005a34    00000050                : usbdcdesc.obj (.text:USBDCDConfigDescGet)
                  00005a84    00000050                : usbdenum.obj (.text:USBDeviceResumeTickHandler)
                  00005ad4    00000050     usb_dev_serial.obj (.text:USBUARTPrimeTransmit)
                  00005b24    0000004c     usblib.lib : usbdconfig.obj (.text:GetEPDescriptorType)
                  00005b70    0000004c                : usbdenum.obj (.text:USBDStringIndexFromRequest)
                  00005bbc    0000004c     driverlib.lib : usb.obj (.text:USBEndpointDMAConfigSet)
                  00005c08    0000004c     usblib.lib : usbdma.obj (.text:iDMAUSBChannelEnable)
                  00005c54    0000004c     rtsv7M4_T_le_v4SPD16_eabi.lib : atoi.obj (.text)
                  00005ca0    0000004c                                   : cpy_tbl.obj (.text)
                  00005cec    0000004a     usblib.lib : usbdcdesc.obj (.text:ConfigAlternateInterfaceGet)
                  00005d36    0000004a                : usbdcdc.obj (.text:HandleEP0Data)
                  00005d80    0000004a                : usbdcdc.obj (.text:HandleEndpoints)
                  00005dca    0000004a     driverlib.lib : usb.obj (.text:USBDevEndpointStallClear)
                  00005e14    0000004a     usblib.lib : usbdma.obj (.text:uDMAUSBChannelDisable)
                  00005e5e    00000002     --HOLE-- [fill = 0]
                  00005e60    00000048                : usbdenum.obj (.text:USBDeviceEnumResetHandler)
                  00005ea8    00000048     rtsv7M4_T_le_v4SPD16_eabi.lib : fd_toi_t2.obj (.text)
                  00005ef0    00000048     driverlib.lib : udma.obj (.text:uDMAChannelAttributeDisable)
                  00005f38    00000046                   : usb.obj (.text:USBEndpointDataGet)
                  00005f7e    00000002     --HOLE-- [fill = 0]
                  00005f80    00000044     usblib.lib : usbdenum.obj (.text:USBDCDDeviceInfoInit)
                  00005fc4    00000044                : usbdenum.obj (.text:USBDGetInterface)
                  00006008    0000003c                : usbdma.obj (.text:iDMAUSBChannelRelease)
                  00006044    0000003a     driverlib.lib : usb.obj (.text:USBFIFOConfigSet)
                  0000607e    00000002     --HOLE-- [fill = 0]
                  00006080    00000038     usblib.lib : usbtick.obj (.text:InternalUSBRegisterTickHandler)
                  000060b8    00000038                : usbtick.obj (.text:InternalUSBStartOfFrameTick)
                  000060f0    00000038     usb_dev_serial.obj (.text:SendBreak)
                  00006128    00000038     usblib.lib : usbdcdc.obj (.text:SendBreak)
                  00006160    00000038                : usbdcdesc.obj (.text:USBDCDConfigGetInterfaceEndpoint)
                  00006198    00000038     driverlib.lib : usb.obj (.text:USBIntStatusControl)
                  000061d0    00000038     usblib.lib : usbringbuf.obj (.text:USBRingBufAdvanceWrite)
                  00006208    00000036                : usbdcdc.obj (.text:USBDCDCSerialStateChange)
                  0000623e    00000036     driverlib.lib : usb.obj (.text:USBEndpointDataPut)
                  00006274    00000034     usblib.lib : usbdcdc.obj (.text:HandleConfigChange)
                  000062a8    00000034     driverlib.lib : sysctl.obj (.text:SysCtlPeripheralEnable)
                  000062dc    00000034                   : usb.obj (.text:USBEndpointDataSend)
                  00006310    00000034     usblib.lib : usbdma.obj (.text:iDMAUSBChannelStatus)
                  00006344    00000034     rtsv7M4_T_le_v4SPD16_eabi.lib : strstr.obj (.text)
                  00006378    00000032     usblib.lib : usbdcdesc.obj (.text:NextConfigDescGet)
                  000063aa    00000032                : usbdcdc.obj (.text:ProcessNotificationToHost)
                  000063dc    00000032     driverlib.lib : usb.obj (.text:USBDevEndpointStall)
                  0000640e    00000032     usblib.lib : usbdma.obj (.text:iDMAUSBChannelDisable)
                  00006440    00000030                : usbdma.obj (.text:DMAUSBIntHandler)
                  00006470    00000030                : usbtick.obj (.text:InternalUSBTickInit)
                  000064a0    00000030                : usbdenum.obj (.text:USBDGetConfiguration)
                  000064d0    00000030                : usbringbuf.obj (.text:UpdateIndexAtomic)
                  00006500    0000002e                : usbbuffer.obj (.text:USBBufferWrite)
                  0000652e    0000002e                : usbdcdc.obj (.text:USBDCDCRxPacketAvailable)
                  0000655c    0000002e     rtsv7M4_T_le_v4SPD16_eabi.lib : i_tofd_t2.obj (.text)
                  0000658a    0000002c     usblib.lib : usbdesc.obj (.text:USBDescGet)
                  000065b6    0000002c                : usbdma.obj (.text:uDMAUSBIntStatus)
                  000065e2    0000002a     usb_dev_serial.obj (.text:CheckForSerialStateChange)
                  0000660c    0000002a     driverlib.lib : gpio.obj (.text:GPIODirModeSet)
                  00006636    0000002a     usblib.lib : usbbuffer.obj (.text:HandleRequestBuffer)
                  00006660    0000002a                : usbdcdesc.obj (.text:USBDCDConfigDescGetNum)
                  0000668a    0000002a                : usbdesc.obj (.text:USBDescGetNum)
                  000066b4    0000002a     driverlib.lib : usb.obj (.text:USBDevEndpointDataAck)
                  000066de    00000028     usblib.lib : usbbuffer.obj (.text:USBBufferRead)
                  00006706    00000002     --HOLE-- [fill = 0]
                  00006708    00000028                : usbdenum.obj (.text:USBDSetAddress)
                  00006730    00000028     driverlib.lib : usb.obj (.text:USBIntEnableControl)
                  00006758    00000028                   : udma.obj (.text:uDMAChannelModeGet)
                  00006780    00000024     usblib.lib : usbdcdc.obj (.text:HandleDisconnect)
                  000067a4    00000024                : usbdcdc.obj (.text:SendLineStateChange)
                  000067c8    00000024     driverlib.lib : usb.obj (.text:USBEndpointDMADisable)
                  000067ec    00000024                   : usb.obj (.text:USBEndpointDMAEnable)
                  00006810    00000024     usblib.lib : usbmode.obj (.text:USBStackModeSet)
                  00006834    00000024     driverlib.lib : udma.obj (.text:uDMAChannelControlSet)
                  00006858    00000022     usblib.lib : usbdcdc.obj (.text:SendLineCodingChange)
                  0000687a    00000022                : usbdma.obj (.text:uDMAUSBChannelStatus)
                  0000689c    00000020                : usbdcdc.obj (.text:CheckAndSendBreak)
                  000068bc    00000020                : usbdconfig.obj (.text:GetEndpointFIFOSize)
                  000068dc    00000020                : usbbuffer.obj (.text:HandleDataRemaining)
                  000068fc    00000020     motores.obj (.text:StopTrackDEC)
                  0000691c    00000020     motores.obj (.text:StopTrackRA)
                  0000693c    00000020     usblib.lib : usbringbuf.obj (.text:USBRingBufAdvanceRead)
                  0000695c    0000001e                : usbringbuf.obj (.text:USBRingBufContigFree)
                  0000697a    0000001e     driverlib.lib : usb.obj (.text:USBULPIRegRead)
                  00006998    0000001e                   : usb.obj (.text:USBULPIRegWrite)
                  000069b6    0000001c     usblib.lib : usbdcdesc.obj (.text:USBDCDConfigGetInterface)
                  000069d2    00000002     --HOLE-- [fill = 0]
                  000069d4    0000001c                : usbdenum.obj (.text:USBDCDStallEP0)
                  000069f0    0000001c     driverlib.lib : usb.obj (.text:USBEndpointDataAvail)
                  00006a0c    0000001c     usblib.lib : usbringbuf.obj (.text:USBRingBufRead)
                  00006a28    0000001c                : usbringbuf.obj (.text:USBRingBufWrite)
                  00006a44    0000001c     rtsv7M4_T_le_v4SPD16_eabi.lib : memccpy.obj (.text)
                  00006a60    0000001a     usblib.lib : usbdcdc.obj (.text:DeviceConsumedAllData)
                  00006a7a    0000001a                : usbdcdesc.obj (.text:USBDCDConfigDescGetSize)
                  00006a94    0000001a     driverlib.lib : usb.obj (.text:USBEndpointDMAChannel)
                  00006aae    00000018                   : gpio.obj (.text:GPIOPinTypeGPIOOutput)
                  00006ac6    00000018     usblib.lib : usbdcdc.obj (.text:SetDeferredOpFlag)
                  00006ade    00000002     --HOLE-- [fill = 0]
                  00006ae0    00000018     driverlib.lib : timer.obj (.text:TimerDisable)
                  00006af8    00000018     usblib.lib : usbdhandler.obj (.text:USB0DeviceIntHandler)
                  00006b10    00000018                : usbbuffer.obj (.text:USBBufferInit)
                  00006b28    00000018                : usbdenum.obj (.text:USBDCDFeatureGet)
                  00006b40    00000018                : usbdenum.obj (.text:USBDSetDescriptor)
                  00006b58    00000018                : usbdenum.obj (.text:USBDSyncFrame)
                  00006b70    00000018     rtsv7M4_T_le_v4SPD16_eabi.lib : args_main.obj (.text)
                  00006b88    00000018                                   : ll_mul_t2.obj (.text)
                  00006ba0    00000018                                   : strcmp.obj (.text)
                  00006bb8    00000018                                   : strrchr.obj (.text)
                  00006bd0    00000018     driverlib.lib : udma.obj (.text:uDMAChannelDisable)
                  00006be8    00000018                   : udma.obj (.text:uDMAChannelEnable)
                  00006c00    00000016     usblib.lib : usbdcdc.obj (.text:CheckAndSendLineCodingChange)
                  00006c16    00000016                : usbdcdc.obj (.text:CheckAndSendLineStateChange)
                  00006c2c    00000016     driverlib.lib : usb.obj (.text:USBIntEnableEndpoint)
                  00006c42    00000016     usblib.lib : usbringbuf.obj (.text:USBRingBufFlush)
                  00006c58    00000016                : usbringbuf.obj (.text:USBRingBufReadOne)
                  00006c6e    00000016                : usbringbuf.obj (.text:USBRingBufUsed)
                  00006c84    00000016     rtsv7M4_T_le_v4SPD16_eabi.lib : strchr.obj (.text)
                  00006c9a    00000014     usblib.lib : usbbuffer.obj (.text:HandleTxComplete)
                  00006cae    00000002     --HOLE-- [fill = 0]
                  00006cb0    00000014     driverlib.lib : sysctl.obj (.text:SysCtlUSBPLLEnable)
                  00006cc4    00000014     usblib.lib : usbdcdc.obj (.text:USBDCDCTxPacketAvailable)
                  00006cd8    00000014                : usbdenum.obj (.text:USBDCDRequestDataEP0)
                  00006cec    00000014                : usbdenum.obj (.text:USBDCDSendDataEP0)
                  00006d00    00000014     driverlib.lib : usb.obj (.text:USBDMAChannelConfigSet)
                  00006d14    00000014                   : usb.obj (.text:USBHostResume)
                  00006d28    00000014                   : usb.obj (.text:_USBIndexWrite)
                  00006d3c    00000014     rtsv7M4_T_le_v4SPD16_eabi.lib : _lock.obj (.text)
                  00006d50    00000014                                   : s_copysign.obj (.text)
                  00006d64    00000014                                   : strcpy.obj (.text)
                  00006d78    00000014                                   : strlen.obj (.text)
                  00006d8c    00000012     usblib.lib : usbdcdc.obj (.text:HandleResume)
                  00006d9e    00000012                : usbdcdc.obj (.text:HandleSuspend)
                  00006db0    00000012     driverlib.lib : timer.obj (.text:TimerLoadSet)
                  00006dc2    00000012                   : usb.obj (.text:USBDMAChannelDisable)
                  00006dd4    00000012                   : usb.obj (.text:USBDMAChannelEnable)
                  00006de6    00000012                   : usb.obj (.text:USBDMAChannelIntDisable)
                  00006df8    00000012                   : usb.obj (.text:USBDMAChannelIntEnable)
                  00006e0a    00000012     usblib.lib : usbringbuf.obj (.text:USBRingBufFree)
                  00006e1c    00000010     driverlib.lib : interrupt.obj (.text:IntMasterDisable)
                  00006e2c    00000010                   : interrupt.obj (.text:IntMasterEnable)
                  00006e3c    00000010     usb_dev_serial.obj (.text:SysTickIntHandler)
                  00006e4c    00000010     driverlib.lib : usb.obj (.text:USBEndpointStatus)
                  00006e5c    00000010     usblib.lib : usbringbuf.obj (.text:USBRingBufContigUsed)
                  00006e6c    00000010                : usbringbuf.obj (.text:USBRingBufWriteOne)
                  00006e7c    0000000e                : usbdma.obj (.text:DMAUSBIntStatusClear)
                  00006e8a    0000000e     driverlib.lib : timer.obj (.text:TimerEnable)
                  00006e98    0000000e                   : usb.obj (.text:USBDMAChannelStatus)
                  00006ea6    0000000e                   : usb.obj (.text:USBDevLPMDisable)
                  00006eb4    0000000e                   : usb.obj (.text:USBDevLPMEnable)
                  00006ec2    0000000e                   : usb.obj (.text:USBULPIDisable)
                  00006ed0    0000000e                   : usb.obj (.text:USBULPIEnable)
                  00006ede    0000000e     rtsv7M4_T_le_v4SPD16_eabi.lib : copy_decompress_none.obj (.text:decompress:none)
                  00006eec    0000000c     driverlib.lib : cpu.obj (.text:CPUcpsid)
                  00006ef8    0000000c                   : cpu.obj (.text:CPUcpsie)
                  00006f04    0000000c                   : usb.obj (.text:USBEndpointPacketCountSet)
                  00006f10    0000000c                   : usb.obj (.text:USBLPMIntEnable)
                  00006f1c    0000000c     usblib.lib : usbringbuf.obj (.text:USBRingBufInit)
                  00006f28    0000000a     driverlib.lib : timer.obj (.text:TimerIntDisable)
                  00006f32    0000000a                   : usb.obj (.text:USBClockEnable)
                  00006f3c    0000000a                   : usb.obj (.text:USBControllerVersion)
                  00006f46    0000000a                   : usb.obj (.text:USBDMAChannelAddressSet)
                  00006f50    0000000a                   : usb.obj (.text:USBDMAChannelCountSet)
                  00006f5a    0000000a                   : usb.obj (.text:USBDevConnect)
                  00006f64    0000000a                   : usb.obj (.text:USBDevDisconnect)
                  00006f6e    0000000a                   : usb.obj (.text:USBIntStatusEndpoint)
                  00006f78    00000008                   : timer.obj (.text:TimerIntEnable)
                  00006f80    00000008                   : usb.obj (.text:USBDevMode)
                  00006f88    00000008                   : usb.obj (.text:USBFIFOAddrGet)
                  00006f90    00000008                   : usb.obj (.text:USBOTGMode)
                  00006f98    00000008     usblib.lib : usbdma.obj (.text:iDMAUSBChannelIntDisable)
                  00006fa0    00000008                : usbdma.obj (.text:iDMAUSBChannelIntEnable)
                  00006fa8    00000006     driverlib.lib : gpio.obj (.text:GPIOPinRead)
                  00006fae    00000006                   : gpio.obj (.text:GPIOPinWrite)
                  00006fb4    00000006     startup_ccs.obj (.text:ResetISR)
                  00006fba    00000006     usblib.lib : usbbuffer.obj (.text:USBBufferDataAvailable)
                  00006fc0    00000006                : usbbuffer.obj (.text:USBBufferFlush)
                  00006fc6    00000006                : usbbuffer.obj (.text:USBBufferSpaceAvailable)
                  00006fcc    00000006     driverlib.lib : usb.obj (.text:USBDMAChannelIntStatus)
                  00006fd2    00000006                   : usb.obj (.text:USBDevLPMConfig)
                  00006fd8    00000006                   : usb.obj (.text:USBLPMIntStatus)
                  00006fde    00000006     rtsv7M4_T_le_v4SPD16_eabi.lib : copy_decompress_rle.obj (.text:decompress:rle24)
                  00006fe4    00000006     usblib.lib : usbdma.obj (.text:iDMAUSBIntStatus)
                  00006fea    00000004                : usbdma.obj (.text:DMAUSBStatus)
                  00006fee    00000004     driverlib.lib : timer.obj (.text:TimerIntClear)
                  00006ff2    00000004     usb_dev_serial.obj (.text:TxHandler)
                  00006ff6    00000004     driverlib.lib : usb.obj (.text:USBDevAddrSet)
                  00006ffa    00000004     rtsv7M4_T_le_v4SPD16_eabi.lib : pre_init.obj (.text)

.const     0    00007000    00000498     
                  00007000    00000101     rtsv7M4_T_le_v4SPD16_eabi.lib : ctype.obj (.const:.string:_ctypes_)
                  00007101    00000004     usb_serial_structs.obj (.const:.string:g_pui8LangDescriptor)
                  00007105    00000003     --HOLE-- [fill = 0]
                  00007108    00000098     rtsv7M4_T_le_v4SPD16_eabi.lib : strtod.obj (.const:$O1$$)
                  000071a0    00000092     parser.obj (.const:.string)
                  00007232    00000002     --HOLE-- [fill = 0]
                  00007234    00000070     driverlib.lib : interrupt.obj (.const)
                  000072a4    00000058     usblib.lib : usbdcdc.obj (.const)
                  000072fc    00000036     usb_serial_structs.obj (.const:.string:g_pui8ConfigString)
                  00007332    00000002     --HOLE-- [fill = 0]
                  00007334    00000034     usblib.lib : usbdenum.obj (.const:g_psUSBDStdRequests)
                  00007368    00000030                : usbdcdc.obj (.const:g_sCDCHandlers)
                  00007398    0000002e                : usbdcdc.obj (.const:.string)
                  000073c6    0000002c     usb_serial_structs.obj (.const:.string:g_pui8ControlInterfaceString)
                  000073f2    00000024     usb_serial_structs.obj (.const:.string:g_pui8ManufacturerString)
                  00007416    00000023     usblib.lib : usbdcdc.obj (.const:.string:g_pui8CDCSerCommInterface)
                  00007439    00000022     usb_serial_structs.obj (.const:.string:g_pui8ProductString)
                  0000745b    00000001     --HOLE-- [fill = 0]
                  0000745c    00000018     usb_serial_structs.obj (.const:g_ppui8StringDescriptors)
                  00007474    00000012     usb_serial_structs.obj (.const:.string:g_pui8SerialNumberString)
                  00007486    00000002     --HOLE-- [fill = 0]
                  00007488    00000010     rtsv7M4_T_le_v4SPD16_eabi.lib : _scanfi.obj (.const:$O1$$)

.cinit     0    00007498    00000194     
                  00007498    0000016f     (.cinit..data.load) [load image, compression = rle]
                  00007607    00000001     --HOLE-- [fill = 0]
                  00007608    0000000b     (.cinit..bss.load) [load image, compression = rle]
                  00007613    00000001     --HOLE-- [fill = 0]
                  00007614    00000008     (__TI_handler_table)
                  0000761c    00000010     (__TI_cinit_table)

.init_array 
*          0    00000000    00000000     UNINITIALIZED

.bss       0    20000000    0000040d     UNINITIALIZED
                  20000000    00000110     usblib.lib : usbdma.obj (.bss:g_psUSBDMAInst)
                  20000110    00000100     (.common:g_pui8USBRxBuffer)
                  20000210    00000100     (.common:g_pui8USBTxBuffer)
                  20000310    00000050                : usbdenum.obj (.bss:g_psDCDInst)
                  20000360    00000040                : usbdenum.obj (.bss:g_pui8DataBufferIn)
                  200003a0    00000018     (.common:g_pfnTickHandlers)
                  200003b8    00000018     (.common:g_pvTickInstance)
                  200003d0    00000014     (.common:buffercomando)
                  200003e4    00000008     (.common:DECS)
                  200003ec    00000008     (.common:RAS)
                  200003f4    00000004     (.common:g_pcStatus)
                  200003f8    00000004     (.common:g_pfnUSBModeCallback)
                  200003fc    00000004     (.common:g_ppsDevInfo)
                  20000400    00000004     (.common:g_ui32ULPISupport)
                  20000404    00000004     (.common:handler)
                  20000408    00000004     (.common:indice)
                  2000040c    00000001     (.common:recibialgo)

.data      0    20000810    00000218     UNINITIALIZED
                  20000810    00000074     parser.obj (.data:comando)
                  20000884    00000060     usb_serial_structs.obj (.data:g_sCDCDevice)
                  200008e4    0000005e     usblib.lib : usbdcdc.obj (.data)
                  20000942    00000002     --HOLE--
                  20000944    00000038     usb_serial_structs.obj (.data:g_sRxBuffer)
                  2000097c    00000038     usb_serial_structs.obj (.data:g_sTxBuffer)
                  200009b4    00000031     usb_dev_serial.obj (.data)
                  200009e5    00000003     --HOLE--
                  200009e8    0000000c     rtsv7M4_T_le_v4SPD16_eabi.lib : exit.obj (.data:$O1$$)
                  200009f4    0000000c     usblib.lib : usbtick.obj (.data)
                  20000a00    00000009                : usbmode.obj (.data)
                  20000a09    00000003     --HOLE--
                  20000a0c    00000008     rtsv7M4_T_le_v4SPD16_eabi.lib : _lock.obj (.data:$O1$$)
                  20000a14    00000008     usblib.lib : usbdenum.obj (.data)
                  20000a1c    00000004     parser.obj (.data)
                  20000a20    00000004     rtsv7M4_T_le_v4SPD16_eabi.lib : errno.obj (.data)
                  20000a24    00000004                                   : stkdepth_vars.obj (.data)

.stack     0    20000410    00000400     UNINITIALIZED
                  20000410    00000400     --HOLE--

MODULE SUMMARY

       Module                     code    ro data   rw data
       ------                     ----    -------   -------
    ./
       usb_dev_serial.obj         2226    0         98     
       motores.obj                940     0         0      
       usb_serial_structs.obj     0       214       720    
       startup_ccs.obj            12      620       0      
       parser.obj                 148     146       120    
    +--+--------------------------+-------+---------+---------+
       Total:                     3326    980       938    
                                                           
    /home/nicolas/Programas/ti/SW-EK-TM4C123GXL-2.1.2.111/examples/boards/ek-tm4c123gxl/usb_dev_serial/ccs/../../../../../driverlib/ccs/Debug/driverlib.lib
       usb.obj                    1354    0         0      
       interrupt.obj              340     112       0      
       gpio.obj                   384     0         0      
       udma.obj                   328     0         0      
       timer.obj                  174     0         0      
       sysctl.obj                 152     0         0      
       cpu.obj                    24      0         0      
    +--+--------------------------+-------+---------+---------+
       Total:                     2756    112       0      
                                                           
    /home/nicolas/Programas/ti/SW-EK-TM4C123GXL-2.1.2.111/examples/boards/ek-tm4c123gxl/usb_dev_serial/ccs/../../../../../usblib/ccs/Debug/usblib.lib
       usbdenum.obj               2904    52        160    
       usbdcdc.obj                2142    217       94     
       usbdma.obj                 2008    0         272    
       usbbuffer.obj              658     0         0      
       usbdconfig.obj             576     0         0      
       usbdcdesc.obj              356     0         0      
       usbringbuf.obj             350     0         0      
       usbtick.obj                160     0         60     
       usbdesc.obj                86      0         0      
       usbulpi.obj                82      0         0      
       usbmode.obj                36      0         13     
       usbdhandler.obj            24      0         0      
    +--+--------------------------+-------+---------+---------+
       Total:                     9382    269       599    
                                                           
    /home/nicolas/Programas/ti/ccsv6/tools/compiler/ti-cgt-arm_16.3.0.STS/lib/rtsv7M4_T_le_v4SPD16_eabi.lib
       _printfi.obj               4368    0         0      
       _scanfi.obj                2340    16        0      
       strtod.obj                 572     152       0      
       ull_div_t2.obj             500     0         0      
       strtoll.obj                484     0         0      
       fd_add_t2.obj              438     0         0      
       strtoull.obj               364     0         0      
       fd_div_t2.obj              310     0         0      
       strtol.obj                 308     0         0      
       strtoul.obj                276     0         0      
       fd_cmp_t2.obj              268     0         0      
       ctype.obj                  0       257       0      
       fd_mul_t2.obj              252     0         0      
       s_scalbn.obj               252     0         0      
       sscanf.obj                 204     0         0      
       memcpy_t2.obj              156     0         0      
       memset_t2.obj              122     0         0      
       autoinit.obj               112     0         0      
       copy_decompress_rle.obj    112     0         0      
       fd_tos_t2.obj              110     0         0      
       s_frexp.obj                100     0         0      
       exit.obj                   84      0         12     
       sprintf.obj                96      0         0      
       ltoa.obj                   86      0         0      
       boot.obj                   84      0         0      
       atoi.obj                   76      0         0      
       cpy_tbl.obj                76      0         0      
       fd_toi_t2.obj              72      0         0      
       strstr.obj                 52      0         0      
       i_tofd_t2.obj              46      0         0      
       _lock.obj                  20      0         8      
       memccpy.obj                28      0         0      
       args_main.obj              24      0         0      
       ll_mul_t2.obj              24      0         0      
       strcmp.obj                 24      0         0      
       strrchr.obj                24      0         0      
       strchr.obj                 22      0         0      
       s_copysign.obj             20      0         0      
       strcpy.obj                 20      0         0      
       strlen.obj                 20      0         0      
       copy_decompress_none.obj   14      0         0      
       errno.obj                  0       0         4      
       pre_init.obj               4       0         0      
       stkdepth_vars.obj          0       0         4      
       mpu_init.obj               2       0         0      
       startup.obj                2       0         0      
    +--+--------------------------+-------+---------+---------+
       Total:                     12568   425       28     
                                                           
       Stack:                     0       0         1024   
       Linker Generated:          0       402       0      
    +--+--------------------------+-------+---------+---------+
       Grand Total:               28032   2188      2589   


LINKER GENERATED COPY TABLES

__TI_cinit_table @ 0000761c records: 2, size/record: 8, table size: 16
	.data: load addr=00007498, load size=0000016f bytes, run addr=20000810, run size=00000218 bytes, compression=rle
	.bss: load addr=00007608, load size=0000000b bytes, run addr=20000000, run size=0000040d bytes, compression=rle


LINKER GENERATED HANDLER TABLE

__TI_handler_table @ 00007614 records: 2, size/record: 4, table size: 8
	index: 0, handler: __TI_decompress_rle24
	index: 1, handler: __TI_decompress_none


GLOBAL SYMBOLS: SORTED ALPHABETICALLY BY Name 

address   name                            
-------   ----                            
000058ed  C$$EXIT                         
00006eed  CPUcpsid                        
00006ef9  CPUcpsie                        
00003abd  ControlHandler                  
200009c8  DEC                             
200003e4  DECS                            
0000660d  GPIODirModeSet                  
000033a9  GPIOPadConfigSet                
00006fa9  GPIOPinRead                     
00006aaf  GPIOPinTypeGPIOOutput           
00006faf  GPIOPinWrite                    
000035f1  Goto                            
00005349  IntDisable                      
000053b1  IntEnable                       
00005419  IntIsEnabled                    
00006e1d  IntMasterDisable                
00006e2d  IntMasterEnable                 
00006081  InternalUSBRegisterTickHandler  
000060b9  InternalUSBStartOfFrameTick     
00006471  InternalUSBTickInit             
00004e11  ProcessDataFromHost             
00005205  ProcessDataToHost               
000063ab  ProcessNotificationToHost       
200009c4  RA                              
200003ec  RAS                             
00006fb5  ResetISR                        
00004d29  RxHandler                       
UNDEFED   SHT$$INIT_ARRAY$$Base           
UNDEFED   SHT$$INIT_ARRAY$$Limit          
000068fd  StopTrackDEC                    
0000691d  StopTrackRA                     
000062a9  SysCtlPeripheralEnable          
00005995  SysCtlPeripheralReset           
00006cb1  SysCtlUSBPLLEnable              
00006e3d  SysTickIntHandler               
00004bc1  Timer0IntHandler                
00004c39  Timer1IntHandler                
0000560d  TimerConfigure                  
00006ae1  TimerDisable                    
00006e8b  TimerEnable                     
00006fef  TimerIntClear                   
00006f29  TimerIntDisable                 
00006f79  TimerIntEnable                  
00006db1  TimerLoadSet                    
00004d9d  TrackDEC                        
00004f65  TrackRA                         
00006ff3  TxHandler                       
00005941  ULPIConfigSet                   
00006af9  USB0DeviceIntHandler            
00006fbb  USBBufferDataAvailable          
0000547d  USBBufferEventCallback          
00006fc1  USBBufferFlush                  
00006b11  USBBufferInit                   
000066df  USBBufferRead                   
00006fc7  USBBufferSpaceAvailable         
00006501  USBBufferWrite                  
00006f33  USBClockEnable                  
00006f3d  USBControllerVersion            
00003b99  USBDCDCCompositeInit            
000059e5  USBDCDCInit                     
000045ff  USBDCDCPacketRead               
0000566d  USBDCDCPacketWrite              
0000652f  USBDCDCRxPacketAvailable        
00006209  USBDCDCSerialStateChange        
00006cc5  USBDCDCTxPacketAvailable        
00005a35  USBDCDConfigDescGet             
00006661  USBDCDConfigDescGetNum          
00006a7b  USBDCDConfigDescGetSize         
000069b7  USBDCDConfigGetInterface        
00006161  USBDCDConfigGetInterfaceEndpoint
00005f81  USBDCDDeviceInfoInit            
00006b29  USBDCDFeatureGet                
00002c05  USBDCDInit                      
00006cd9  USBDCDRequestDataEP0            
00006ced  USBDCDSendDataEP0               
000069d5  USBDCDStallEP0                  
00006f47  USBDMAChannelAddressSet         
00006d01  USBDMAChannelConfigSet          
00006f51  USBDMAChannelCountSet           
00006dc3  USBDMAChannelDisable            
00006dd5  USBDMAChannelEnable             
00006de7  USBDMAChannelIntDisable         
00006df9  USBDMAChannelIntEnable          
00006fcd  USBDMAChannelIntStatus          
00006e99  USBDMAChannelStatus             
0000658b  USBDescGet                      
0000668b  USBDescGetNum                   
00006ff7  USBDevAddrSet                   
00006f5b  USBDevConnect                   
00006f65  USBDevDisconnect                
00004acd  USBDevEndpointConfigSet         
000066b5  USBDevEndpointDataAck           
000063dd  USBDevEndpointStall             
00005dcb  USBDevEndpointStallClear        
0000578d  USBDevEndpointStatusClear       
00006fd3  USBDevLPMConfig                 
00006ea7  USBDevLPMDisable                
00006eb5  USBDevLPMEnable                 
00006f81  USBDevMode                      
00002ff5  USBDeviceConfig                 
000047ad  USBDeviceConfigAlternate        
00003c71  USBDeviceEnumHandler            
00005e61  USBDeviceEnumResetHandler       
00002ea5  USBDeviceIntHandlerInternal     
00005a85  USBDeviceResumeTickHandler      
00006a95  USBEndpointDMAChannel           
00005bbd  USBEndpointDMAConfigSet         
000067c9  USBEndpointDMADisable           
000067ed  USBEndpointDMAEnable            
000069f1  USBEndpointDataAvail            
00005f39  USBEndpointDataGet              
0000623f  USBEndpointDataPut              
000062dd  USBEndpointDataSend             
00006f05  USBEndpointPacketCountSet       
00006e4d  USBEndpointStatus               
00006f89  USBFIFOAddrGet                  
00006045  USBFIFOConfigSet                
00006d15  USBHostResume                   
00006731  USBIntEnableControl             
00006c2d  USBIntEnableEndpoint            
00006199  USBIntStatusControl             
00006f6f  USBIntStatusEndpoint            
00006f11  USBLPMIntEnable                 
00006fd9  USBLPMIntStatus                 
00002aa5  USBLibDMAInit                   
00006f91  USBOTGMode                      
0000693d  USBRingBufAdvanceRead           
000061d1  USBRingBufAdvanceWrite          
0000695d  USBRingBufContigFree            
00006e5d  USBRingBufContigUsed            
00006c43  USBRingBufFlush                 
00006e0b  USBRingBufFree                  
00006f1d  USBRingBufInit                  
00006a0d  USBRingBufRead                  
00006c59  USBRingBufReadOne               
00006c6f  USBRingBufUsed                  
00006a29  USBRingBufWrite                 
00006e6d  USBRingBufWriteOne              
00006811  USBStackModeSet                 
000054e1  USBUARTIntHandler               
00006ec3  USBULPIDisable                  
00006ed1  USBULPIEnable                   
0000697b  USBULPIRegRead                  
00006999  USBULPIRegWrite                 
20000810  __STACK_END                     
00000400  __STACK_SIZE                    
20000810  __STACK_TOP                     
0000761c  __TI_CINIT_Base                 
0000762c  __TI_CINIT_Limit                
00007614  __TI_Handler_Table_Base         
0000761c  __TI_Handler_Table_Limit        
00005045  __TI_auto_init                  
200009e8  __TI_cleanup_ptr                
00006edf  __TI_decompress_none            
00006fdf  __TI_decompress_rle24           
200009ec  __TI_dtors_ptr                  
200009f0  __TI_enable_exit_profile_output 
ffffffff  __TI_pprof_out_hndl             
00001077  __TI_printfi                    
ffffffff  __TI_prof_data_size             
ffffffff  __TI_prof_data_start            
000017f9  __TI_scanfi                     
00000000  __TI_static_base__              
00004839  __aeabi_cdcmpeq                 
00004839  __aeabi_cdcmple                 
000048bf  __aeabi_cdrcmple                
00005195  __aeabi_d2f                     
00005ea9  __aeabi_d2iz                    
0000278b  __aeabi_dadd                    
0000313d  __aeabi_ddiv                    
000036ed  __aeabi_dmul                    
00002781  __aeabi_dsub                    
0000655d  __aeabi_i2d                     
00006b89  __aeabi_lmul                    
00004b47  __aeabi_memclr                  
00004b47  __aeabi_memclr4                 
00004b47  __aeabi_memclr8                 
00004279  __aeabi_memcpy                  
00004279  __aeabi_memcpy4                 
00004279  __aeabi_memcpy8                 
00004b49  __aeabi_memset                  
00004b49  __aeabi_memset4                 
00004b49  __aeabi_memset8                 
000023a9  __aeabi_uldivmod                
ffffffff  __binit__                       
ffffffff  __c_args__                      
0000468f  __mpu_init                      
20000410  __stack                         
00006b71  _args_main                      
00005899  _c_int00                        
00007000  _ctypes_                        
20000a0c  _lock                           
00006d4b  _nop                            
00006d43  _register_lock                  
00006d3d  _register_unlock                
00004e83  _system_post_cinit              
00006ffb  _system_pre_init                
20000a10  _unlock                         
000058f1  abort                           
00005c55  atoi                            
ffffffff  binit                           
200003d0  buffercomando                   
20000a1c  cantcomandos                    
200009cc  comandado                       
20000810  comando                         
00005ca1  copy_in                         
00006d51  copysign                        
00006d51  copysignl                       
200009c0  cuentaactualDEC                 
200009bc  cuentaactualRA                  
200009b8  cuentafinalDEC                  
200009b4  cuentafinalRA                   
20000a20  errno                           
000058f9  exit                            
00005545  frexp                           
00005545  frexpl                          
200009f4  g_bUSBTimerInitialized          
20000a00  g_iUSBMode                      
000072f4  g_pCDCCompSerConfigDescriptors  
000072f8  g_pCDCCompSerConfigDescriptorsHS
200003f4  g_pcStatus                      
200003a0  g_pfnTickHandlers               
00000000  g_pfnVectors                    
000072ec  g_ppCDCSerConfigDescriptors     
000072f0  g_ppCDCSerConfigDescriptorsHS   
200003fc  g_ppsDevInfo                    
0000745c  g_ppui8StringDescriptors        
20000920  g_psCDCCompSerSections          
20000930  g_psCDCCompSerSectionsHS        
20000908  g_psCDCSerSections              
20000914  g_psCDCSerSectionsHS            
20000310  g_psDCDInst                     
00007416  g_pui8CDCSerCommInterface       
00007398  g_pui8CDCSerDataInterface       
000073af  g_pui8CDCSerDataInterfaceHS     
200008f6  g_pui8CDCSerDescriptor          
200008e4  g_pui8CDCSerDeviceDescriptor    
000072fc  g_pui8ConfigString              
000073c6  g_pui8ControlInterfaceString    
200008ff  g_pui8IADSerDescriptor          
00007101  g_pui8LangDescriptor            
000073f2  g_pui8ManufacturerString        
00007439  g_pui8ProductString             
00007474  g_pui8SerialNumberString        
20000110  g_pui8USBRxBuffer               
20000210  g_pui8USBTxBuffer               
200003b8  g_pvTickInstance                
000072dc  g_sCDCCompSerConfigHeader       
000072e4  g_sCDCCompSerConfigHeaderHS     
20000884  g_sCDCDevice                    
00007368  g_sCDCHandlers                  
000072b4  g_sCDCSerCommInterfaceSection   
000072cc  g_sCDCSerConfigHeader           
000072d4  g_sCDCSerConfigHeaderHS         
000072a4  g_sCDCSerConfigSection          
000072bc  g_sCDCSerDataInterfaceSection   
000072c4  g_sCDCSerDataInterfaceSectionHS 
000072ac  g_sIADSerConfigSection          
20000944  g_sRxBuffer                     
2000097c  g_sTxBuffer                     
200009f8  g_ui32CurrentUSBTick            
200009e0  g_ui32Flags                     
200009dc  g_ui32SysTickCount              
200009d4  g_ui32UARTRxCount               
200009d0  g_ui32UARTTxCount               
200009fc  g_ui32USBSOFCount               
20000a04  g_ui32WaitTicks                 
20000404  handler                         
20000408  indice                          
000041dd  initmotores                     
000037e9  ldexp                           
000037e9  ldexpl                          
000057eb  ltoa                            
00001ca1  main                            
20000a24  main_func_sp                    
00006a45  memccpy                         
00004279  memcpy                          
00004b4f  memset                          
000044d9  quecomandoes                    
2000040c  recibialgo                      
000037e9  scalbn                          
000037e9  scalbnl                         
0000572d  sprintf                         
00003e2f  sscanf                          
00006c85  strchr                          
00006ba1  strcmp                          
00006d65  strcpy                          
00006d79  strlen                          
00006bb9  strrchr                         
00006345  strstr                          
0000216d  strtod                          
00003275  strtol                          
0000216d  strtold                         
0000259d  strtoll                         
000034dd  strtoul                         
00002939  strtoull                        
00005ef1  uDMAChannelAttributeDisable     
00006835  uDMAChannelControlSet           
00006bd1  uDMAChannelDisable              
00006be9  uDMAChannelEnable               
00006759  uDMAChannelModeGet              
000049c9  uDMAChannelTransferSet          
00003e1d  vsscanf                         


GLOBAL SYMBOLS: SORTED BY Symbol Address 

address   name                            
-------   ----                            
00000000  __TI_static_base__              
00000000  g_pfnVectors                    
00000400  __STACK_SIZE                    
00001077  __TI_printfi                    
000017f9  __TI_scanfi                     
00001ca1  main                            
0000216d  strtod                          
0000216d  strtold                         
000023a9  __aeabi_uldivmod                
0000259d  strtoll                         
00002781  __aeabi_dsub                    
0000278b  __aeabi_dadd                    
00002939  strtoull                        
00002aa5  USBLibDMAInit                   
00002c05  USBDCDInit                      
00002ea5  USBDeviceIntHandlerInternal     
00002ff5  USBDeviceConfig                 
0000313d  __aeabi_ddiv                    
00003275  strtol                          
000033a9  GPIOPadConfigSet                
000034dd  strtoul                         
000035f1  Goto                            
000036ed  __aeabi_dmul                    
000037e9  ldexp                           
000037e9  ldexpl                          
000037e9  scalbn                          
000037e9  scalbnl                         
00003abd  ControlHandler                  
00003b99  USBDCDCCompositeInit            
00003c71  USBDeviceEnumHandler            
00003e1d  vsscanf                         
00003e2f  sscanf                          
000041dd  initmotores                     
00004279  __aeabi_memcpy                  
00004279  __aeabi_memcpy4                 
00004279  __aeabi_memcpy8                 
00004279  memcpy                          
000044d9  quecomandoes                    
000045ff  USBDCDCPacketRead               
0000468f  __mpu_init                      
000047ad  USBDeviceConfigAlternate        
00004839  __aeabi_cdcmpeq                 
00004839  __aeabi_cdcmple                 
000048bf  __aeabi_cdrcmple                
000049c9  uDMAChannelTransferSet          
00004acd  USBDevEndpointConfigSet         
00004b47  __aeabi_memclr                  
00004b47  __aeabi_memclr4                 
00004b47  __aeabi_memclr8                 
00004b49  __aeabi_memset                  
00004b49  __aeabi_memset4                 
00004b49  __aeabi_memset8                 
00004b4f  memset                          
00004bc1  Timer0IntHandler                
00004c39  Timer1IntHandler                
00004d29  RxHandler                       
00004d9d  TrackDEC                        
00004e11  ProcessDataFromHost             
00004e83  _system_post_cinit              
00004f65  TrackRA                         
00005045  __TI_auto_init                  
00005195  __aeabi_d2f                     
00005205  ProcessDataToHost               
00005349  IntDisable                      
000053b1  IntEnable                       
00005419  IntIsEnabled                    
0000547d  USBBufferEventCallback          
000054e1  USBUARTIntHandler               
00005545  frexp                           
00005545  frexpl                          
0000560d  TimerConfigure                  
0000566d  USBDCDCPacketWrite              
0000572d  sprintf                         
0000578d  USBDevEndpointStatusClear       
000057eb  ltoa                            
00005899  _c_int00                        
000058ed  C$$EXIT                         
000058f1  abort                           
000058f9  exit                            
00005941  ULPIConfigSet                   
00005995  SysCtlPeripheralReset           
000059e5  USBDCDCInit                     
00005a35  USBDCDConfigDescGet             
00005a85  USBDeviceResumeTickHandler      
00005bbd  USBEndpointDMAConfigSet         
00005c55  atoi                            
00005ca1  copy_in                         
00005dcb  USBDevEndpointStallClear        
00005e61  USBDeviceEnumResetHandler       
00005ea9  __aeabi_d2iz                    
00005ef1  uDMAChannelAttributeDisable     
00005f39  USBEndpointDataGet              
00005f81  USBDCDDeviceInfoInit            
00006045  USBFIFOConfigSet                
00006081  InternalUSBRegisterTickHandler  
000060b9  InternalUSBStartOfFrameTick     
00006161  USBDCDConfigGetInterfaceEndpoint
00006199  USBIntStatusControl             
000061d1  USBRingBufAdvanceWrite          
00006209  USBDCDCSerialStateChange        
0000623f  USBEndpointDataPut              
000062a9  SysCtlPeripheralEnable          
000062dd  USBEndpointDataSend             
00006345  strstr                          
000063ab  ProcessNotificationToHost       
000063dd  USBDevEndpointStall             
00006471  InternalUSBTickInit             
00006501  USBBufferWrite                  
0000652f  USBDCDCRxPacketAvailable        
0000655d  __aeabi_i2d                     
0000658b  USBDescGet                      
0000660d  GPIODirModeSet                  
00006661  USBDCDConfigDescGetNum          
0000668b  USBDescGetNum                   
000066b5  USBDevEndpointDataAck           
000066df  USBBufferRead                   
00006731  USBIntEnableControl             
00006759  uDMAChannelModeGet              
000067c9  USBEndpointDMADisable           
000067ed  USBEndpointDMAEnable            
00006811  USBStackModeSet                 
00006835  uDMAChannelControlSet           
000068fd  StopTrackDEC                    
0000691d  StopTrackRA                     
0000693d  USBRingBufAdvanceRead           
0000695d  USBRingBufContigFree            
0000697b  USBULPIRegRead                  
00006999  USBULPIRegWrite                 
000069b7  USBDCDConfigGetInterface        
000069d5  USBDCDStallEP0                  
000069f1  USBEndpointDataAvail            
00006a0d  USBRingBufRead                  
00006a29  USBRingBufWrite                 
00006a45  memccpy                         
00006a7b  USBDCDConfigDescGetSize         
00006a95  USBEndpointDMAChannel           
00006aaf  GPIOPinTypeGPIOOutput           
00006ae1  TimerDisable                    
00006af9  USB0DeviceIntHandler            
00006b11  USBBufferInit                   
00006b29  USBDCDFeatureGet                
00006b71  _args_main                      
00006b89  __aeabi_lmul                    
00006ba1  strcmp                          
00006bb9  strrchr                         
00006bd1  uDMAChannelDisable              
00006be9  uDMAChannelEnable               
00006c2d  USBIntEnableEndpoint            
00006c43  USBRingBufFlush                 
00006c59  USBRingBufReadOne               
00006c6f  USBRingBufUsed                  
00006c85  strchr                          
00006cb1  SysCtlUSBPLLEnable              
00006cc5  USBDCDCTxPacketAvailable        
00006cd9  USBDCDRequestDataEP0            
00006ced  USBDCDSendDataEP0               
00006d01  USBDMAChannelConfigSet          
00006d15  USBHostResume                   
00006d3d  _register_unlock                
00006d43  _register_lock                  
00006d4b  _nop                            
00006d51  copysign                        
00006d51  copysignl                       
00006d65  strcpy                          
00006d79  strlen                          
00006db1  TimerLoadSet                    
00006dc3  USBDMAChannelDisable            
00006dd5  USBDMAChannelEnable             
00006de7  USBDMAChannelIntDisable         
00006df9  USBDMAChannelIntEnable          
00006e0b  USBRingBufFree                  
00006e1d  IntMasterDisable                
00006e2d  IntMasterEnable                 
00006e3d  SysTickIntHandler               
00006e4d  USBEndpointStatus               
00006e5d  USBRingBufContigUsed            
00006e6d  USBRingBufWriteOne              
00006e8b  TimerEnable                     
00006e99  USBDMAChannelStatus             
00006ea7  USBDevLPMDisable                
00006eb5  USBDevLPMEnable                 
00006ec3  USBULPIDisable                  
00006ed1  USBULPIEnable                   
00006edf  __TI_decompress_none            
00006eed  CPUcpsid                        
00006ef9  CPUcpsie                        
00006f05  USBEndpointPacketCountSet       
00006f11  USBLPMIntEnable                 
00006f1d  USBRingBufInit                  
00006f29  TimerIntDisable                 
00006f33  USBClockEnable                  
00006f3d  USBControllerVersion            
00006f47  USBDMAChannelAddressSet         
00006f51  USBDMAChannelCountSet           
00006f5b  USBDevConnect                   
00006f65  USBDevDisconnect                
00006f6f  USBIntStatusEndpoint            
00006f79  TimerIntEnable                  
00006f81  USBDevMode                      
00006f89  USBFIFOAddrGet                  
00006f91  USBOTGMode                      
00006fa9  GPIOPinRead                     
00006faf  GPIOPinWrite                    
00006fb5  ResetISR                        
00006fbb  USBBufferDataAvailable          
00006fc1  USBBufferFlush                  
00006fc7  USBBufferSpaceAvailable         
00006fcd  USBDMAChannelIntStatus          
00006fd3  USBDevLPMConfig                 
00006fd9  USBLPMIntStatus                 
00006fdf  __TI_decompress_rle24           
00006fef  TimerIntClear                   
00006ff3  TxHandler                       
00006ff7  USBDevAddrSet                   
00006ffb  _system_pre_init                
00007000  _ctypes_                        
00007101  g_pui8LangDescriptor            
000072a4  g_sCDCSerConfigSection          
000072ac  g_sIADSerConfigSection          
000072b4  g_sCDCSerCommInterfaceSection   
000072bc  g_sCDCSerDataInterfaceSection   
000072c4  g_sCDCSerDataInterfaceSectionHS 
000072cc  g_sCDCSerConfigHeader           
000072d4  g_sCDCSerConfigHeaderHS         
000072dc  g_sCDCCompSerConfigHeader       
000072e4  g_sCDCCompSerConfigHeaderHS     
000072ec  g_ppCDCSerConfigDescriptors     
000072f0  g_ppCDCSerConfigDescriptorsHS   
000072f4  g_pCDCCompSerConfigDescriptors  
000072f8  g_pCDCCompSerConfigDescriptorsHS
000072fc  g_pui8ConfigString              
00007368  g_sCDCHandlers                  
00007398  g_pui8CDCSerDataInterface       
000073af  g_pui8CDCSerDataInterfaceHS     
000073c6  g_pui8ControlInterfaceString    
000073f2  g_pui8ManufacturerString        
00007416  g_pui8CDCSerCommInterface       
00007439  g_pui8ProductString             
0000745c  g_ppui8StringDescriptors        
00007474  g_pui8SerialNumberString        
00007614  __TI_Handler_Table_Base         
0000761c  __TI_CINIT_Base                 
0000761c  __TI_Handler_Table_Limit        
0000762c  __TI_CINIT_Limit                
20000110  g_pui8USBRxBuffer               
20000210  g_pui8USBTxBuffer               
20000310  g_psDCDInst                     
200003a0  g_pfnTickHandlers               
200003b8  g_pvTickInstance                
200003d0  buffercomando                   
200003e4  DECS                            
200003ec  RAS                             
200003f4  g_pcStatus                      
200003fc  g_ppsDevInfo                    
20000404  handler                         
20000408  indice                          
2000040c  recibialgo                      
20000410  __stack                         
20000810  __STACK_END                     
20000810  __STACK_TOP                     
20000810  comando                         
20000884  g_sCDCDevice                    
200008e4  g_pui8CDCSerDeviceDescriptor    
200008f6  g_pui8CDCSerDescriptor          
200008ff  g_pui8IADSerDescriptor          
20000908  g_psCDCSerSections              
20000914  g_psCDCSerSectionsHS            
20000920  g_psCDCCompSerSections          
20000930  g_psCDCCompSerSectionsHS        
20000944  g_sRxBuffer                     
2000097c  g_sTxBuffer                     
200009b4  cuentafinalRA                   
200009b8  cuentafinalDEC                  
200009bc  cuentaactualRA                  
200009c0  cuentaactualDEC                 
200009c4  RA                              
200009c8  DEC                             
200009cc  comandado                       
200009d0  g_ui32UARTTxCount               
200009d4  g_ui32UARTRxCount               
200009dc  g_ui32SysTickCount              
200009e0  g_ui32Flags                     
200009e8  __TI_cleanup_ptr                
200009ec  __TI_dtors_ptr                  
200009f0  __TI_enable_exit_profile_output 
200009f4  g_bUSBTimerInitialized          
200009f8  g_ui32CurrentUSBTick            
200009fc  g_ui32USBSOFCount               
20000a00  g_iUSBMode                      
20000a04  g_ui32WaitTicks                 
20000a0c  _lock                           
20000a10  _unlock                         
20000a1c  cantcomandos                    
20000a20  errno                           
20000a24  main_func_sp                    
ffffffff  __TI_pprof_out_hndl             
ffffffff  __TI_prof_data_size             
ffffffff  __TI_prof_data_start            
ffffffff  __binit__                       
ffffffff  __c_args__                      
ffffffff  binit                           
UNDEFED   SHT$$INIT_ARRAY$$Base           
UNDEFED   SHT$$INIT_ARRAY$$Limit          

[303 symbols]
